{
  "contractName": "DecCert",
  "abi": [
    {
      "inputs": [],
      "stateMutability": "nonpayable",
      "type": "constructor"
    },
    {
      "inputs": [],
      "name": "deployer",
      "outputs": [
        {
          "internalType": "address",
          "name": "",
          "type": "address"
        }
      ],
      "stateMutability": "view",
      "type": "function",
      "constant": true
    },
    {
      "inputs": [
        {
          "internalType": "string",
          "name": "iname",
          "type": "string"
        },
        {
          "internalType": "string",
          "name": "ip0",
          "type": "string"
        },
        {
          "internalType": "string",
          "name": "ip1",
          "type": "string"
        },
        {
          "internalType": "string",
          "name": "ip2",
          "type": "string"
        },
        {
          "internalType": "string",
          "name": "ip3",
          "type": "string"
        },
        {
          "internalType": "string",
          "name": "ip4",
          "type": "string"
        },
        {
          "internalType": "uint256",
          "name": "imu",
          "type": "uint256"
        },
        {
          "internalType": "bytes32",
          "name": "ir",
          "type": "bytes32"
        }
      ],
      "name": "new_certifcate",
      "outputs": [],
      "stateMutability": "nonpayable",
      "type": "function"
    },
    {
      "inputs": [
        {
          "internalType": "address",
          "name": "cert",
          "type": "address"
        }
      ],
      "name": "stake_certificate",
      "outputs": [],
      "stateMutability": "payable",
      "type": "function",
      "payable": true
    },
    {
      "inputs": [
        {
          "internalType": "address",
          "name": "cert",
          "type": "address"
        }
      ],
      "name": "fraud_tag_certificate",
      "outputs": [],
      "stateMutability": "nonpayable",
      "type": "function"
    },
    {
      "inputs": [
        {
          "internalType": "address",
          "name": "cert",
          "type": "address"
        },
        {
          "internalType": "string",
          "name": "psi",
          "type": "string"
        }
      ],
      "name": "revoke_certificate",
      "outputs": [],
      "stateMutability": "nonpayable",
      "type": "function"
    }
  ],
  "bytecode": "0x608060405234801561001057600080fd5b5033600360006101000a81548173ffffffffffffffffffffffffffffffffffffffff021916908373ffffffffffffffffffffffffffffffffffffffff16021790555061186c806100616000396000f3fe60806040526004361061004a5760003560e01c806348d4bd581461004f5780635934b5dd14610078578063867ec664146100a1578063d5f39488146100bd578063f8d8fb8c146100e8575b600080fd5b34801561005b57600080fd5b5061007660048036038101906100719190610ec3565b610111565b005b34801561008457600080fd5b5061009f600480360381019061009a919061107f565b6103f0565b005b6100bb60048036038101906100b6919061107f565b610696565b005b3480156100c957600080fd5b506100d2610a8c565b6040516100df91906110bb565b60405180910390f35b3480156100f457600080fd5b5061010f600480360381019061010a91906110d6565b610ab2565b005b600015156000803373ffffffffffffffffffffffffffffffffffffffff1673ffffffffffffffffffffffffffffffffffffffff16815260200190815260200160002060090160009054906101000a900460ff161515146101a6576040517f08c379a000000000000000000000000000000000000000000000000000000000815260040161019d906111b5565b60405180910390fd5b60008060003373ffffffffffffffffffffffffffffffffffffffff1673ffffffffffffffffffffffffffffffffffffffff168152602001908152602001600020600601541461022a576040517f08c379a000000000000000000000000000000000000000000000000000000000815260040161022190611221565b60405180910390fd5b6000821161026d576040517f08c379a0000000000000000000000000000000000000000000000000000000008152600401610264906112b3565b60405180910390fd5b60405180610140016040528089815260200188815260200187815260200186815260200185815260200184815260200183815260200160008152602001828152602001600015158152506000803373ffffffffffffffffffffffffffffffffffffffff1673ffffffffffffffffffffffffffffffffffffffff1681526020019081526020016000206000820151816000019080519060200190610311929190610c5a565b50602082015181600101908051906020019061032e929190610c5a565b50604082015181600201908051906020019061034b929190610c5a565b506060820151816003019080519060200190610368929190610c5a565b506080820151816004019080519060200190610385929190610c5a565b5060a08201518160050190805190602001906103a2929190610c5a565b5060c0820151816006015560e0820151816007015561010082015181600801556101208201518160090160006101000a81548160ff0219169083151502179055509050505050505050505050565b600015156000808373ffffffffffffffffffffffffffffffffffffffff1673ffffffffffffffffffffffffffffffffffffffff16815260200190815260200160002060090160009054906101000a900460ff16151514610485576040517f08c379a000000000000000000000000000000000000000000000000000000000815260040161047c9061131f565b60405180910390fd5b60001515600260008373ffffffffffffffffffffffffffffffffffffffff1673ffffffffffffffffffffffffffffffffffffffff16815260200190815260200160002060010160003373ffffffffffffffffffffffffffffffffffffffff1673ffffffffffffffffffffffffffffffffffffffff16815260200190815260200160002060009054906101000a900460ff16151514610558576040517f08c379a000000000000000000000000000000000000000000000000000000000815260040161054f9061138b565b60405180910390fd5b6001600260008373ffffffffffffffffffffffffffffffffffffffff1673ffffffffffffffffffffffffffffffffffffffff16815260200190815260200160002060010160003373ffffffffffffffffffffffffffffffffffffffff1673ffffffffffffffffffffffffffffffffffffffff16815260200190815260200160002060006101000a81548160ff021916908315150217905550600260008273ffffffffffffffffffffffffffffffffffffffff1673ffffffffffffffffffffffffffffffffffffffff168152602001908152602001600020600001339080600181540180825580915050600190039060005260206000200160009091909190916101000a81548173ffffffffffffffffffffffffffffffffffffffff021916908373ffffffffffffffffffffffffffffffffffffffff16021790555050565b600015156000808373ffffffffffffffffffffffffffffffffffffffff1673ffffffffffffffffffffffffffffffffffffffff16815260200190815260200160002060090160009054906101000a900460ff1615151461072b576040517f08c379a00000000000000000000000000000000000000000000000000000000081526004016107229061131f565b60405180910390fd5b6000341161076e576040517f08c379a0000000000000000000000000000000000000000000000000000000008152600401610765906113f7565b60405180910390fd5b600060286000808473ffffffffffffffffffffffffffffffffffffffff1673ffffffffffffffffffffffffffffffffffffffff168152602001908152602001600020600601546107be9190611475565b905080341115610803576040517f08c379a00000000000000000000000000000000000000000000000000000000081526004016107fa90611518565b60405180910390fd5b8034600160008573ffffffffffffffffffffffffffffffffffffffff1673ffffffffffffffffffffffffffffffffffffffff16815260200190815260200160002060003373ffffffffffffffffffffffffffffffffffffffff1673ffffffffffffffffffffffffffffffffffffffff1681526020019081526020016000205461088c9190611538565b11156108cd576040517f08c379a00000000000000000000000000000000000000000000000000000000081526004016108c490611600565b60405180910390fd5b6000808373ffffffffffffffffffffffffffffffffffffffff1673ffffffffffffffffffffffffffffffffffffffff168152602001908152602001600020600601546000808473ffffffffffffffffffffffffffffffffffffffff1673ffffffffffffffffffffffffffffffffffffffff168152602001908152602001600020600701543461095c9190611538565b111561099d576040517f08c379a000000000000000000000000000000000000000000000000000000000815260040161099490611692565b60405180910390fd5b346000808473ffffffffffffffffffffffffffffffffffffffff1673ffffffffffffffffffffffffffffffffffffffff16815260200190815260200160002060070160008282546109ee9190611538565b9250508190555034600160008473ffffffffffffffffffffffffffffffffffffffff1673ffffffffffffffffffffffffffffffffffffffff16815260200190815260200160002060003373ffffffffffffffffffffffffffffffffffffffff1673ffffffffffffffffffffffffffffffffffffffff1681526020019081526020016000206000828254610a819190611538565b925050819055505050565b600360009054906101000a900473ffffffffffffffffffffffffffffffffffffffff1681565b600015156000808473ffffffffffffffffffffffffffffffffffffffff1673ffffffffffffffffffffffffffffffffffffffff16815260200190815260200160002060090160009054906101000a900460ff16151514610b47576040517f08c379a0000000000000000000000000000000000000000000000000000000008152600401610b3e9061131f565b60405180910390fd5b60008060008473ffffffffffffffffffffffffffffffffffffffff1673ffffffffffffffffffffffffffffffffffffffff168152602001908152602001600020600801549050600082604051602001610ba0919061172c565b604051602081830303815290604052805190602001209050808214610bfa576040517f08c379a0000000000000000000000000000000000000000000000000000000008152600401610bf1906117b5565b60405180910390fd5b60016000808673ffffffffffffffffffffffffffffffffffffffff1673ffffffffffffffffffffffffffffffffffffffff16815260200190815260200160002060090160006101000a81548160ff02191690831515021790555050505050565b828054610c6690611804565b90600052602060002090601f016020900481019282610c885760008555610ccf565b82601f10610ca157805160ff1916838001178555610ccf565b82800160010185558215610ccf579182015b82811115610cce578251825591602001919060010190610cb3565b5b509050610cdc9190610ce0565b5090565b5b80821115610cf9576000816000905550600101610ce1565b5090565b6000604051905090565b600080fd5b600080fd5b600080fd5b600080fd5b6000601f19601f8301169050919050565b7f4e487b7100000000000000000000000000000000000000000000000000000000600052604160045260246000fd5b610d6482610d1b565b810181811067ffffffffffffffff82111715610d8357610d82610d2c565b5b80604052505050565b6000610d96610cfd565b9050610da28282610d5b565b919050565b600067ffffffffffffffff821115610dc257610dc1610d2c565b5b610dcb82610d1b565b9050602081019050919050565b82818337600083830152505050565b6000610dfa610df584610da7565b610d8c565b905082815260208101848484011115610e1657610e15610d16565b5b610e21848285610dd8565b509392505050565b600082601f830112610e3e57610e3d610d11565b5b8135610e4e848260208601610de7565b91505092915050565b6000819050919050565b610e6a81610e57565b8114610e7557600080fd5b50565b600081359050610e8781610e61565b92915050565b6000819050919050565b610ea081610e8d565b8114610eab57600080fd5b50565b600081359050610ebd81610e97565b92915050565b600080600080600080600080610100898b031215610ee457610ee3610d07565b5b600089013567ffffffffffffffff811115610f0257610f01610d0c565b5b610f0e8b828c01610e29565b985050602089013567ffffffffffffffff811115610f2f57610f2e610d0c565b5b610f3b8b828c01610e29565b975050604089013567ffffffffffffffff811115610f5c57610f5b610d0c565b5b610f688b828c01610e29565b965050606089013567ffffffffffffffff811115610f8957610f88610d0c565b5b610f958b828c01610e29565b955050608089013567ffffffffffffffff811115610fb657610fb5610d0c565b5b610fc28b828c01610e29565b94505060a089013567ffffffffffffffff811115610fe357610fe2610d0c565b5b610fef8b828c01610e29565b93505060c06110008b828c01610e78565b92505060e06110118b828c01610eae565b9150509295985092959890939650565b600073ffffffffffffffffffffffffffffffffffffffff82169050919050565b600061104c82611021565b9050919050565b61105c81611041565b811461106757600080fd5b50565b60008135905061107981611053565b92915050565b60006020828403121561109557611094610d07565b5b60006110a38482850161106a565b91505092915050565b6110b581611041565b82525050565b60006020820190506110d060008301846110ac565b92915050565b600080604083850312156110ed576110ec610d07565b5b60006110fb8582860161106a565b925050602083013567ffffffffffffffff81111561111c5761111b610d0c565b5b61112885828601610e29565b9150509250929050565b600082825260208201905092915050565b7f43657274696669636174652066726f6d2074686973206164647265737320697360008201527f2070726576696f75736c79207265766f6b65642e000000000000000000000000602082015250565b600061119f603483611132565b91506111aa82611143565b604082019050919050565b600060208201905081810360008301526111ce81611192565b9050919050565b7f436572746966696361746520616c7265616479206578697374732e0000000000600082015250565b600061120b601b83611132565b9150611216826111d5565b602082019050919050565b6000602082019050818103600083015261123a816111fe565b9050919050565b7f4d6178207374616b6520616d6f756e74206d757374206265206772656174657260008201527f207468616e20302e000000000000000000000000000000000000000000000000602082015250565b600061129d602883611132565b91506112a882611241565b604082019050919050565b600060208201905081810360008301526112cc81611290565b9050919050565b7f4365727469666963617465206973207265766f6b65642e000000000000000000600082015250565b6000611309601783611132565b9150611314826112d3565b602082019050919050565b60006020820190508181036000830152611338816112fc565b9050919050565b7f416c7265616479206672617564207461676765642e0000000000000000000000600082015250565b6000611375601583611132565b91506113808261133f565b602082019050919050565b600060208201905081810360008301526113a481611368565b9050919050565b7f5374616b65206d7573742062652067726561746572207468616e20302e000000600082015250565b60006113e1601d83611132565b91506113ec826113ab565b602082019050919050565b60006020820190508181036000830152611410816113d4565b9050919050565b7f4e487b7100000000000000000000000000000000000000000000000000000000600052601260045260246000fd5b7f4e487b7100000000000000000000000000000000000000000000000000000000600052601160045260246000fd5b600061148082610e57565b915061148b83610e57565b92508261149b5761149a611417565b5b828204905092915050565b7f5374616b65206d757374206265206c65737320322e3525206f66206d6178207360008201527f7461746520666f7220612063657274696669636174652e000000000000000000602082015250565b6000611502603783611132565b915061150d826114a6565b604082019050919050565b60006020820190508181036000830152611531816114f5565b9050919050565b600061154382610e57565b915061154e83610e57565b9250827fffffffffffffffffffffffffffffffffffffffffffffffffffffffffffffffff0382111561158357611582611446565b5b828201905092915050565b7f5374616b65206d757374206265206c65737320322e3525206f66206d6178207360008201527f7461746520666f7220612063657274696669636174652e202832290000000000602082015250565b60006115ea603b83611132565b91506115f58261158e565b604082019050919050565b60006020820190508181036000830152611619816115dd565b9050919050565b7f5374616b6520616d6f756e742077696c6c206f766572666c6f772067616d6d6160008201527f2e00000000000000000000000000000000000000000000000000000000000000602082015250565b600061167c602183611132565b915061168782611620565b604082019050919050565b600060208201905081810360008301526116ab8161166f565b9050919050565b600081519050919050565b600081905092915050565b60005b838110156116e65780820151818401526020810190506116cb565b838111156116f5576000848401525b50505050565b6000611706826116b2565b61171081856116bd565b93506117208185602086016116c8565b80840191505092915050565b600061173882846116fb565b915081905092915050565b7f5265766f63617465642073656372657420646f6573206e6f7420636f6d70757460008201527f6520746f20636f727265637420746f6b656e2e00000000000000000000000000602082015250565b600061179f603383611132565b91506117aa82611743565b604082019050919050565b600060208201905081810360008301526117ce81611792565b9050919050565b7f4e487b7100000000000000000000000000000000000000000000000000000000600052602260045260246000fd5b6000600282049050600182168061181c57607f821691505b602082108114156118305761182f6117d5565b5b5091905056fea2646970667358221220979d09ce489e045da6d318a01cde19ff1c36ee8a8adfeb223ecc3e781e10bacc64736f6c634300080b0033",
  "immutableReferences": {},
  "source": "/*\nSam A. Markelon\nsmarkelon@ufl.edu\n04/07/2022\n*/\n\npragma solidity >=0.4.22 <0.9.0;\n\n\ncontract DecCert {\n\n  // allows us to quickly check uniqueness of fraud tags\n  struct addressSet {\n    address[] addresses;\n    mapping(address => bool) is_in;\n  }\n\n  struct Certificate {\n    string name; // identity\n    string p0; // publicly verifialbe \"proofs\"\n    string p1;\n    string p2; \n    string p3;\n    string p4; \n    uint mu; // max stake amount\n    uint gamma; // current amount staked\n    bytes32 r; // revocation token\n    bool x; // revoked? \n  }\n\n  // address to certificate mapping\n  mapping(address => Certificate) internal certificates; \n  // mapping of cert address to mapping of cert stakers to stake amount\n  mapping(address => mapping(address => uint)) internal sArrows; \n  // fraud tag set\n  mapping(address => addressSet) internal fraud_tags;\n\n  // the DecCA \"deployer\"\n  address public deployer;\n\n  constructor() public {\n    deployer = msg.sender;\n  }\n\n  function new_certifcate( \n    string memory iname,\n    string memory ip0,\n    string memory ip1,\n    string memory ip2,\n    string memory ip3,\n    string memory ip4,\n    uint imu,\n    bytes32 ir)\n    public{\n    \n    require(certificates[msg.sender].x == false, \"Certificate from this address is previously revoked.\");\n    require(certificates[msg.sender].mu == 0, \"Certificate already exists.\");\n    require(imu > 0, \"Max stake amount must be greater than 0.\");\n\n    certificates[msg.sender] = Certificate(iname, ip0, ip1, ip2, ip3, ip4, imu, 0, ir, false);\n  }\n  \n  function stake_certificate(address cert) public payable{\n    \n    require(certificates[cert].x == false, \"Certificate is revoked.\");\n    require(msg.value > 0, \"Stake must be greater than 0.\");\n    uint max_indivdual_stake = certificates[cert].mu / 40;\n    require(msg.value <= max_indivdual_stake, \"Stake must be less 2.5% of max state for a certificate.\");\n    require(sArrows[cert][msg.sender] + msg.value <= max_indivdual_stake, \"Stake must be less 2.5% of max state for a certificate. (2)\");\n    require(msg.value + certificates[cert].gamma <= certificates[cert].mu, \"Stake amount will overflow gamma.\");\n    certificates[cert].gamma+=msg.value;\n    sArrows[cert][msg.sender]+=msg.value;\n  }\n\n  function fraud_tag_certificate(address cert) public {\n    require(certificates[cert].x == false, \"Certificate is revoked.\");\n    require(fraud_tags[cert].is_in[msg.sender] == false, \"Already fraud tagged.\");\n    \n    fraud_tags[cert].is_in[msg.sender] = true;\n    fraud_tags[cert].addresses.push(msg.sender); \n  }\n\n  function revoke_certificate(address cert, string memory psi) public {\n    require(certificates[cert].x == false, \"Certificate is revoked.\");\n    \n    bytes32 r_compare = certificates[cert].r;\n    bytes32 r_computed = keccak256(abi.encodePacked(psi));\n    \n    require(r_compare == r_computed, \"Revocated secret does not compute to correct token.\");\n    certificates[cert].x = true; \n  }\n\n  /* WARNING!!!\n\n  DO NOT USE THIS CONTRACT IN DEPLOYMENT...FUNDS WILL BE PERMANENTLY LOST!!!\n\n  For actual deployment need to implement the time lock staking and unstaking functionality.\n\n  Also need to implement functionality so stakers can remove immediately refund stake from a revoked certificate.\n  */\n\n}\n",
  "sourcePath": "/Users/smarky/Dropbox/My Mac (vonNeumann)/Desktop/DecCert/contracts/DecCert.sol",
  "compiler": {
    "name": "solc",
    "version": "0.8.11+commit.d7f03943.Emscripten.clang"
  },
  "schemaVersion": "3.4.4",
  "updatedAt": "2022-04-24T22:05:00.928Z",
  "networkType": "ethereum",
  "devdoc": {
    "kind": "dev",
    "methods": {},
    "version": 1
  },
  "userdoc": {
    "kind": "user",
    "methods": {},
    "version": 1
  }
}